:1018000057C08BC070C06FC06EC06DC06CC06BC065
:101810006AC069C068C067C066C065C064C063C094
:1018200062C061C060C05FC05EC05DC05CC05BC0C4
:101830005AC059C00403090412036F006200640017
:10184000650076002E006100740010034800490016
:10185000440042006F006F0074001201100100008C
:101860000008C016DF050001010200010902220084
:101870000101008032090400000103000000092179
:1018800001010001222100070581030800C80600AC
:10189000FF0901A101150026FF00750885019506C5
:1018A0000900B20201850295830900B20201C0005D
:1018B00011241FBECFEFD4E0DEBFCDBF11E0A0E00A
:1018C000B1E0E6E9FEE102C005900D92AA30B10751
:1018D000D9F711E0AAE0B1E001C01D92AB33B10726
:1018E000E1F733D1D6C28CCFA82FB92F80E090E09A
:1018F00041E050EA609530E009C02D91822797952C
:10190000879510F084279527305EC8F36F5FA8F3A2
:101910000895EADF8D939D930895CF93CFB7CF932A
:10192000DF93C3954B9BE9F74B9B0BC04B9B09C0C7
:101930004B9B07C04B9B05C04B9B03C04B9B01C0FF
:101940008BC06F93C0911E01DD27CB5DDE4F2F93BF
:1019500065E54B9B03C02F916F91E6CF0F931F93CB
:101960004F9320E040E15F9309B10C7003FB27F92E
:101970003F9350E03BE039C01C7040642F77012F4B
:101980005F5F1EC0406819B11C702F7752501FC096
:10199000406409B12F770C70D1F15F5F00C023C0A4
:1019A000406219B12F771C7091F15F5F00C025C0B4
:1019B0000C701027515012F45D5F000011502795F4
:1019C0002C3F19B1C8F61C700127015027952C3FF8
:1019D000C8F64227499309B10C7010274F73115074
:1019E00027952C3FA8F64695469519B11C7079F0BD
:1019F0000127015027952C3F98F66B5A60F3315020
:101A000009B1B0F600C011E01CBB002719C03B5063
:101A10003195C31BD04011E01CBB0881033C09F188
:101A20000B34F9F020911C011981110F1213EDCF25
:101A30004A81441F093651F10D3211F0013E29F758
:101A4000009323013F915F914F911F910F912F912F
:101A50006F91CCB3C0FD65CFDF91CF91CFBFCF9158
:101A6000189520912301222369F31091210111235C
:101A700049F534304AF13093210120931D01109132
:101A80001E013BE0311B30931E011EC0009121015D
:101A90000130C4F40AE54F70A9F43091000134FD1F
:101AA00014C000930001C1E1D1E013C0052710E08C
:101AB00000C000000BB91AC0052710E0221F1DC08E
:101AC00010E021C04AE502C032ED432FC4E1D0E06E
:101AD00032E01AB11C605B9A0BB11AB95CE020E8E5
:101AE00065E320FF05270BB9279517951C3FF0F6F6
:101AF0006695B8F7B1F720FF05270BB9279517951D
:101B00001C3FD0F62795179517FF052700001C3FAF
:101B10000BB9B0F629913A9519F7037F109122017C
:101B2000110FC651D0400BB911F010931C0111E0F8
:101B30001CBB08601AB1137F402F437F54E05A95B5
:101B4000F1F70BB91AB94BB97DCF80E18BB985E3B9
:101B50008A95F1F74C998BC181E085BF82E085BF02
:101B600080916900836080936900E89A539A20E02D
:101B7000A89580EA9FE00197F1F72150C9F75398A3
:101B80007894FF2400E0A89590912101392F3350DB
:101B900037FD19C180911E01ACE0B0E0A81BB1096E
:101BA000AB5DBE4F80911D018D3209F0BDC0383054
:101BB00009F007C183EC809311018AE5809300014D
:101BC00010920A012C91822F807611969C91119788
:101BD0008823E1F0993079F412968C911297823033
:101BE00031F410920D0127FD8CC09FEF8CC081E075
:101BF00080930E014CC1913009F049C182E091E01F
:101C00009093200180931F0127E081C012968C9150
:101C1000129710921A01992331F410921B018AE154
:101C200091E022E069C0953019F48093220161C0EF
:101C3000963009F04EC013968C911397813019F4A9
:101C40008AE598E11DC0823041F48CE698E19093DA
:101C5000200180931F0122E238C0833009F51296DB
:101C60008C911297882341F484E398E190932001AA
:101C700080931F0124E029C0813041F488E398E17A
:101C80009093200180931F0122E11FC08230E1F474
:101C90008AE498E19093200180931F0120E115C010
:101CA000813241F48EE798E19093200180931F01E7
:101CB00029E00BC0823241F48EE898E19093200134
:101CC00080931F0121E201C020E080E480930A019B
:101CD0001EC0983019F484E291E009C0993019F4DB
:101CE0008093240106C09A3021F48AE191E021E03A
:101CF00003C08AE191E020E09093200180931F01CE
:101D000006C016969C9180E880930A010AC0179637
:101D10008C911797882321F416969C91921708F0BE
:101D2000922F909301014DC080910A0187FF49C015
:101D3000C0910B01D0910C0180910D01882349F4D1
:101D40001196CC9111971296DC9112971496392F17
:101D50003750632F680F60930D01AE014F7351F43C
:101D6000F89483E0FE0180935700E895789407B6D5
:101D700000FCFDCFF894AE018D919C91119721E06C
:101D8000FE010C0120935700E895112478942296C7
:101D9000FE01EF7351F4F89485E0FA018093570047
:101DA000E895789407B600FCFDCF325011F01296FA
:101DB000D4CFD0930C01C0930B0167FF02C01092E7
:101DC0000101109221018091000184FF3CC08091AB
:101DD00001018F3FC1F1182F893008F018E0811BF5
:101DE000809301018091110198E889278093110166
:101DF0001123E1F0E0911F01F091200180910A018F
:101E000086FF09C0912FA2E1B1E084918D933196B4
:101E10009150D9F707C0912FA2E1B1E081918D9344
:101E20009150E1F7F0932001E0931F0182E191E0EE
:101E3000612F6FDD612F6C5F6C3019F08FEF809335
:101E400001016093000194E189B18C7031F49150EB
:101E5000D9F71092220110921C0180910E01882363
:101E600021F0FA9411F4015011F04C9B8CCEF894AF
:101E700081E180935700E8951DBA1092690081E0D6
:101E800085BF15BEE0910F01F0911001099520E08A
:061E90003ECFF894FFCFE5
:0A1E96005AFF014000002000000088
:0400000300001800E1
:00000001FF
