:1000000043C068C15CC05BC05AC059C058C057C02B
:1000100056C055C054C053C052C051C050C04FC04C
:100020004EC04DC04CC04BC04AC049C048C047C07C
:1000300046C045C004030904220362007200650043
:100040006E007400730074007200790073006B001E
:100050006F002E0063006F006D000A034100520024
:100060004C00500012011001FF000008C016DC0512
:1000700000010102000109021200010100802809AB
:10008000040000000000000011241FBECFEFD4E0E8
:10009000DEBFCDBF11E0A0E0B1E0EEE6F6E002C0C9
:1000A00005900D92A230B107D9F711E0A2E0B1E0BE
:1000B00001C01D92A133B107E1F7C5D2D6C2A0CFCE
:1000C000E9E6F0E0808182608083E89A08951F93DA
:1000D000CF93DF9390911701935097FD87C02091A4
:1000E0001401809113018D3209F07EC0983009F01F
:1000F0007BC0CCE0D0E0C21BD109C55EDE4F83ECF3
:10010000809307018AE580930001109202018881A3
:10011000807621F0CE01F2D1282F5DC09A81109215
:1001200010018981882321F41092110122E04DC031
:10013000853019F49093180147C08630B1F58B8152
:10014000813019F484E690E004C0823041F486E7FF
:1001500090E0909316018093150122E122C0833034
:10016000F9F48A81882341F484E390E090931601A6
:100170008093150124E015C0813041F488E390E0BC
:10018000909316018093150122E20BC0823041F456
:100190008AE590E090931601809315012AE001C052
:1001A00020E080E48093020116C0883021F421E031
:1001B0008AE191E00CC0893019F490931A0104C0CF
:1001C0008A3011F421E001C020E080E191E09093B9
:1001D0001601809315018F81882321F48E81821767
:1001E00008F4282F2093010110921701809100013B
:1001F00084FF49C0809101018F3F09F444C0182F4A
:10020000893008F018E0811B80930101809107017B
:1002100098E8892780930701112341F12091150166
:10022000309116018091020186FF0DC0A8E0B1E077
:1002300080E090E0F901E80FF91FE491ED93019659
:100240001817C1F708C0912FD901E8E0F1E08D91AE
:1002500081939150E1F71150812F90E01F5F01963B
:10026000820F931F909316018093150188E091E00F
:10027000612F2CD0612F6C5F6C3019F08FEF809361
:1002800001016093000194E189B18C7031F49150C7
:10029000D9F71092180110921201DF91CF911F919E
:1002A0000895A82FB92F80E090E041E050EA6095D2
:1002B00030E009C02D9182279795879510F084270B
:1002C0009527305EC8F36F5FA8F30895EADF8D933A
:1002D0009D930895CF93CFB7CF93DF93C3954B9B57
:1002E000E9F74B9B0BC04B9B09C04B9B07C04B9B3B
:1002F00005C04B9B03C04B9B01C089C06F93C0914D
:100300001401DD27C55EDE4F2F9365E54B9B03C0CF
:100310002F916F91E6CF0F931F934F9320E040E111
:100320005F9309B10C7003FB27F93F9350E03BE06A
:1003300039C01C7040642F77012F5F5F1EC040687A
:1003400019B11C702F7752501FC0406409B12F772C
:100350000C70D1F15F5F00C023C0406219B12F77EC
:100360001C7091F15F5F00C025C00C7010275150C8
:1003700012F45D5F0000115027952C3F19B1C8F6AB
:100380001C700127015027952C3FC8F6422749933E
:1003900009B10C7010274F73115027952C3FA8F608
:1003A0004695469519B11C7079F0012701502795A3
:1003B0002C3F98F66B5A60F3315009B1B0F600C08B
:1003C00011E01CBB002717C03B503195C31BD04028
:1003D00011E01CBB0881033CF9F00B34E9F02091DB
:1003E00012011981110F1213EDCF093651F10D329F
:1003F00011F0013E39F7009319013F915F914F9140
:100400001F910F912F916F91CCB3C0FD67CFDF91FA
:10041000CF91CFBFCF91189520911901222369F375
:1004200010911701112339F534303AF13093170147
:1004300020931301109114013BE0311B3093140100
:100440001CC0009117010130B4F40AE5309100019D
:1004500034FD14C000930001C7E0D1E013C00527AC
:1004600010E000C000000BB91AC0052710E0221FE1
:100470001DC010E021C04AE502C032ED432FC4E1A7
:10048000D0E032E01AB11C605B9A0BB11AB95CE0A3
:1004900020E865E320FF05270BB9279517951C3F3A
:1004A000F0F66695B8F7B1F720FF05270BB9279549
:1004B00017951C3FD0F62795179517FF05270000C5
:1004C0001C3F0BB9B0F629913A9519F7037F1091AB
:1004D0001801110FC651D0400BB911F01093120141
:1004E00011E01CBB08601AB1137F402F437F54E01A
:1004F0005A95F1F70BB91AB94BB97FCFFC0183E0DC
:1005000091E090931601809315018181843050F41D
:100510003481332339F0333028F42281222311F03F
:10052000253028F08FE78093030181E00895432F61
:100530004150882309F041C0233069F42AB181E099
:1005400090E0042E02C0880F991F0A94E2F780956C
:1005500082238AB921C0213079F48AB121E030E0C8
:10056000042E02C0220F331F0A94E2F7822B8AB9AD
:100570008BB1209528230FC0223071F48AB121E07D
:1005800030E0042E02C0220F331F0A94E2F7822BC0
:100590008AB98BB1282B2BB98AB121E030E002C097
:1005A000220F331F4A95E2F78223809303018BB118
:1005B00028232093040182E0089590E00197880F9A
:1005C000991F480F233069F427B181E090E0042E91
:1005D00002C0880F991F0A94E2F78095822387B999
:1005E00021C0213079F487B121E030E0042E02C02F
:1005F000220F331F0A94E2F7822B87B988B1209526
:1006000028230FC0223071F487B121E030E0042E9E
:1006100002C0220F331F0A94E2F7822B87B988B1F8
:10062000282B28B987B121E030E002C0220F331F08
:100630004A95E2F782238093030188B1282320930F
:10064000040182E008953CDD539A20E040EA5FE037
:1006500003C0CA010197F1F72150D9F7539885B724
:0E066000806185BF789433DDFECFF894FFCF24
:02066E005AFF31
:00000001FF
