:100000000C943E000C9450000C9450000C94500042
:100010000C9450000C9450000C9450000C94500020
:100020000C9450000C9450000C9450000C94500010
:100030000C9450000C9450000C9450000C94500000
:100040000C9450000C9450000C9450000C945000F0
:100050000C9450000C9450000C9450000C945000E0
:100060000C9450000C9450000C946C000C945000B4
:100070000C9450000C9450000C94500011241FBE9E
:10008000CFEFD0E1DEBFCDBF11E0A0E0B1E001C015
:100090001D92A130B107E1F70E948A000C9424015F
:1000A0000C9400009AE08902A001112420E030E0C5
:1000B00060E47CE905C0CB010197F1F72F5F3F4F6A
:1000C00024173507C4F30895880F81608093BA0020
:1000D00085E48093BC0008951F920F920FB60F9293
:1000E00011248F93EF93FF938091BB0080930001C5
:1000F000ECEBF0E08081806C8083FF91EF918F9139
:100100000F900FBE0F901F90189580E185BF8AEF6A
:1001100081B9089583E08093BA0085E48093BC00A0
:1001200080E185BF8AEF81B9789474E040E45CE9AE
:1001300061E080910001863409F476C0873480F450
:10014000833409F448C0843428F48134E9F08234DB
:1001500081F72DC0843409F451C0853451F762C051
:10016000893409F467C08A3430F4873409F45EC0F6
:100170008834F9F65DC0813509F461C0823509F42F
:1001800060C08035B1F658C0109830E081B1862744
:1001900081B920E0CA010197F1F72F5F2233D1F72F
:1001A0003F5F3A3099F7089882B18C7F12C0089A65
:1001B000109A30E081B1862781B920E0CA01019709
:1001C000F1F72F5F2233D1F73F5F3A3099F782B1D1
:1001D000836082B9AECF129830E081B1872781B9B0
:1001E00020E0CA010197F1F72F5F2233D1F73F5F7B
:1001F0003A3099F70A9882B1837FEBCF0A9A129A24
:1002000030E081B1872781B920E0CA010197F1F779
:100210002F5F2233D1F73F5F3A3099F70A9A82B1C4
:100220008C60D7CF149885CF149A83CF159881CF3F
:10023000159A7FCF16987DCF1798169A7ACF179870
:0C02400078CF1698179A75CFF894FFCF6E
:00000001FF
